:020000040000FA
:06000000B2EF18F012003F
:0600080004EF08F01200F5
:060018000CEF08F01200DD
:06082A00020013100000A3
:10083000F1000000030000000E100000EC000000BA
:0408400005000000AF
:0C084400DACFE4FFE2CFDAFFE9CFE4FFF7
:10085000EACFE4FFF6CFE4FFF7CFE4FFF5CFE4FF04
:10086000F3CFE4FFF4CFE4FFFACFE4FF00EE00F0B3
:10087000140EE80403E3EECFE4FFFBD700EE14F020
:10088000080EE80403E3EECFE4FFFBD7E6529FEC4B
:1008900008F0E55200EE1BF0080EE80403E3E5CF94
:1008A000EDFFFBD700EE13F0140EE80403E3E5CFF1
:1008B000EDFFFBD7E5CFFAFFE5CFF4FFE5CFF3FF80
:1008C000E5CFF5FFE5CFF7FFE5CFF6FFE5CFEAFF90
:1008D000E5CFE9FFE5CFDAFF1100D8CFE4FFE0CFA5
:1008E000E4FFE46EDACFE4FFE2CFDAFFE652E5524E
:1008F000E5CFDAFFE550E5CFE0FFE5CFD8FF100008
:1009000005D8E9EC0AF027D8FED71200D9CFE6FFC8
:10091000E1CFD9FF020EE126580EDE6E020EDD6E2B
:100920009B8CDFCF14F0DF06010EDBCF15F001E268
:10093000DB061450151001E0F4D7CAEC13F00FECED
:1009400008F0020EE15C02E2E16AE552E16EE55276
:10095000E7CFD9FF1200D9CFE6FFE1CFD9FF030ED1
:10096000E126200E0E01E76E0019E8AE02D0E73452
:1009700002D0E750005D03E36550020B01E03CD27A
:100980000001EC51ED1102E1000E08D0ECC0E9FFCE
:10099000EDC0EAFFEF50800B01E0010E000901E01D
:1009A0002BD20001A06B60510D0A01E1DFD1010AD9
:1009B00001E1C0D1070A01E17BD1010A01E16ED159
:1009C000030A01E168D1010A01E15FD10F0A01E1E7
:1009D0004FD1010A01E13FD1030A01E132D1010AFD
:1009E00001E1FED0060A60E0030A37E0010A01E0F7
:1009F000EED10001EE51EF1102E1000E08D0EEC081
:100A0000E9FFEFC0EAFFEF50800B01E0010E0009A3
:100A100023E1A10EE66E000EE66EA20EE66E000E5B
:100A2000E66E61C0E6FF69EC13F0146E050EE15E40
:100A30001450400EE66EA00EE66E000EE66E010E3D
:100A4000E66EE66E97EC09F0146E050EE15E14504A
:100A5000F3CFEEF0F4CFEFF0BAD10001EE51EF1189
:100A600002E1000E08D0EEC0E9FFEFC0EAFFEF5050
:100A7000800B01E0010E000916E10001060EA16FD6
:100A8000400EE66EA00EE66E000EE66E010EE66EFD
:100A9000E66E97EC09F0146E050EE15E1450F3CF8C
:100AA000EEF0F4CFEFF093D161514CE16251146E4E
:100AB000156AFF0ED8801456000E155614C062F049
:100AC0000E010E0ED16F040ECA6E0C0EBA6EC70E5A
:100AD000CB6E62C007F005EC15F005C018F006C03B
:100AE00019F007C01AF008C01BF00A6A0B6A7F0EE3
:100AF0000C6E430E0D6E18C005F019C006F01AC03A
:100B000007F01BC008F016EC15F005C014F006C085
:100B100015F007C016F008C017F00A6A0B6A470EF6
:100B20000C6E430E0D6E14C005F015C006F016C015
:100B300007F017C008F069EC15F0D6EC15F0075077
:100B4000BB6E4DD061054BE16251146E156AFF0E0C
:100B5000D8801456000E155614C062F00E01120E05
:100B6000D26F040ECA6E0C0EB46EC70ECB6E62C08E
:100B700007F005EC15F005C018F006C019F007C025
:100B80001AF008C01BF00A6A0B6A7F0E0C6E430E47
:100B90000D6E18C005F019C006F01AC007F01BC092
:100BA00008F016EC15F005C014F006C015F007C0EB
:100BB00016F008C017F00A6A0B6A470E0C6E430E57
:100BC0000D6E14C005F015C006F016C007F017C072
:100BD00008F069EC15F0D6EC15F00750B56EF7D0BB
:100BE0000001EE51EF1102E1000E08D0EEC0E9FF66
:100BF000EFC0EAFFEF50800B01E0010E000920E199
:100C0000F9EC11F0010805E1C0EC11F00001A16F51
:100C100004D0E5EC11F00001A16F400EE66EA00ECD
:100C2000E66E000EE66E010EE66EE66E97EC09F0DB
:100C3000146E050EE15E1450F3CFEEF0F4CFEFF03A
:100C4000C6D0F9EC11F0000905E161C0E6FFDAEC6D
:100C500011F0E552BCD0F9EC11F0000908E1E5EC27
:100C600011F000016115E66EDAEC11F0E552AFD03B
:100C7000F9EC11F0000908E1E5EC11F00001611157
:100C8000E66EDAEC11F0E552A2D061C0E6FFEEECC0
:100C900011F0E5529CD01BEC13F099D0E66A4FECB2
:100CA00012F0E552010EE66E4FEC12F0E5528FD0D5
:100CB000200E635D0BE36351E00BE83AE842DF6E20
:100CC000200EDF02F350635DDF6E02D063C0DFFFF2
:100CD000DFCF14F00F0EE76E1418E8AE02D0143414
:100CE00003D0E750D880145403E2300EDF24DF6EC7
:100CF000F00EDF148009E8380F0B0F0BE76E010EC2
:100D0000E7CFDBFF0F0EDF14E76E020EE7CFDBFF4E
:100D1000010EDBCFE6FF4FEC12F0E552020EDBCF07
:100D2000E6FF4FEC12F0E55261C0E6FF7EEC12F0F8
:100D3000E5524DD06151146E156AFF0ED8801456DD
:100D4000000E15561450E66E5AEC13F0E5520001F1
:100D50006151146E156AFF0ED8801456000E155698
:100D60001450E66EDAEC11F0E55231D00001EE518C
:100D7000EF1102E1000E08D0EEC0E9FFEFC0EAFF7C
:100D8000EF50800B01E0010E000920E165EC13F04B
:100D9000146E156A14BE1568FF0ED8801456000E26
:100DA000155614C0A1F0400EE66EA00EE66E000EC1
:100DB000E66E010EE66EE66E97EC09F0146E050E17
:100DC000E15E1450F3CFEEF0F4CFEFF000D0E9EC99
:100DD00011F0400EE66E600EE66E000EE66EE66AFC
:100DE000010EE66E97EC09F0146E050EE15E1450EC
:100DF000F3CFECF0F4CFEDF0030EE15C02E2E16A38
:100E0000E552E16EE552E7CFD9FF12001200120061
:100E10001200120095EF17F012001E0EE66E010E82
:100E2000E66E60EC09F0E552E552400EE66E600EAB
:100E3000E66E000EE66EE66A010EE66E97EC09F0CD
:100E4000146E050EE15E1450F3CFECF0F4CFEDF02C
:100E500012000E011F0520E10E0120051DE1A098E2
:100E6000D6DF65920E01206B0001100EE06F0E0EB2
:100E7000E16FE007000EE15BE051E111FAE165840A
:100E8000080EE06F070EE16FE007000EE15BE05136
:100E9000E111FAE16594A0881200D9CFE6FFE1CF15
:100EA000D9FFFD0EDBCF06F0FE0EDBCF07F0050EFF
:100EB000061801E1075039E0E868061802E17F0EE4
:100EC000071831E0030E061801E107502AE0020E70
:100ED000061801E1075023E0010E061801E1075052
:100EE0001CE0740E061801E1075015E0750E061897
:100EF00001E107500EE0730E061801E1075007E00C
:100F0000720E061801E1075001E010D00FD080DF0B
:100F10000DD07CDF0BD07BDF09D07FDF07D07CDFFB
:100F200005D078DF03D075DF01D000D0010E00D0EE
:080F3000E552E7CFD9FF1200E2
:080F3800120100020000000894
:100F4000D8043F000200010200010902290001014A
:100F500000C0320904000002030000000921110151
:100F60000001221C00070581034000010705010361
:100F70004000010403090434034D0069006300725A
:100F8000006F006300680069007000200054006575
:100F900000630068006E006F006C006F00670079EE
:100FA00000200049006E0063002E00240345004429
:100FB0000055003000350020004F00500045004E25
:100FC00000200053004F005500520043004500062A
:100FD00000FF0901A1011901290815012540750823
:100FE00095408100190129409100C04A0F730F7785
:030FF0000FAB0F35
:06100000B2EF18F012002F
:021006001200D6
:0610080022EF04F01200CB
:02100E000000E0
:03101000000001DC
:03101300010000D9
:061018006DEF04F0120070
:02101E00D9CF28
:10102000E6FFE1CFD9FFE652A098636A626A0F013A
:10103000266B010EE66EE66AE66A270EE66E0F0E76
:10104000E66E88EC18F0146E050EE15E14500F0188
:10105000160E396F9F0E376F7B0E366FDF6ADF50CB
:10106000146E156A080E145C000E155810E2DF505D
:10107000040DF3CFE9FFF4CFEAFF000EE926040EDA
:10108000EA22EE6AEE6AEE6AEE6ADF2AE8D7658C3B
:101090000F01386B6598659C62A607D062960E01B9
:1010A000136B186B196B1A6BF7D70E01010E2A6FB1
:1010B0002B6F2C6B2D6B206BDF6A020EDF5C26E240
:1010C000EA6ADF34FE0BEA36E96E0B0EE9260E0EF5
:1010D000EA22EE6AED6AEA6ADF34FE0BEA36E96E6E
:1010E000070EE9260E0EEA22EE6AED6ADF50EA6A82
:1010F000240FE96E0E0EEA22EF6ADF50EA6A260F2D
:10110000E96E0E0EEA22EF6ADF2AD7D70E01080E2B
:101110000B6F040E0C6F0F01160E266F0401200ECC
:10112000026F040E036F080E016F840E006F0E0134
:10113000016B006BE552E552E7CFD9FF1200D9CF22
:10114000E6FFE1CFD9FFE6520E01000509E165BADD
:1011500007D0626A0F01368136890E01020E006FD8
:101160006250040B07E00F013651040B03E0629458
:10117000BDEC0EF065A202D0A1989DD06250010B8B
:101180000AE00F013651010B06E049DFA0880E018D
:10119000040E006F62906250100B07E00F01365191
:1011A000100B03E0A7EC0EF0629862AC1AD00F01AE
:1011B00036AD0FD0010EE66EE66A000EE66EE66A08
:1011C000730EE66EE66A4DEC07F0146E060EE15EF5
:1011D0001450629C0E01285101E02807285101E1BA
:1011E00010DA6250200B06E00F013651200B02E0AE
:1011F0008DEC0EF06250020B14E00F013651020B21
:1012000010E0010EE66EE66A000EE66EE66AE6683B
:101210007F0EE66E4DEC07F0146E060EE15E145084
:10122000636A040E0E01E76E0019E8AE02D0E734DF
:1012300002D0E750005D02E2A1983DD00F0136A731
:1012400039D0DF6A040EDF5C35E262A632D064CFAB
:1012500021FE0E012151780BE842E842E842226F5C
:10126000629621B508D02251EA6A260FE96E0E0E69
:10127000EA22EF7007D02251EA6A240FE96E0E0EBF
:10128000EA22EF70225103E1D5EC0EF010D0000EEF
:10129000E66EE66A210EE66E0E0EE66E720EE66EE3
:1012A000E66A4DEC07F0146E060EE15E1450DF2A7C
:1012B000C9D700D0A198E552E552E7CFD9FF120077
:1012C000D9CFE6FFE1CFD9FF020EE126FD0EDBA468
:1012D00007D0E66AFE0EDBCFE6FF24DAE552E552E0
:1012E000FD0EDBA208D0010EE66EFE0EDBCFE6FFA0
:1012F00019DAE552E552FE0EDB50156A260F146E20
:101300000F0E152214C0DEFF15C0DDFFDECFE9FF92
:10131000DDCFEAFFFD0EDBCFEFFF020EE15C02E264
:10132000E16AE552E16EE552E7CFD9FF1200D9CF6D
:10133000E6FFE1CFD9FF020EE126FD0EDB500FE004
:10134000FE0EEA6ADB34FE0BEA36E96E0B0EE92686
:101350000E0EEA22EECFDEFFEDCFDDFF0ED0FE0E49
:10136000EA6ADB34FE0BEA36E96E070EE9260E0E5A
:10137000EA22EECFDEFFEDCFDDFFD9CFE9FFDACFF6
:10138000EAFFEE50ED1003E1F36AF46A49D0DECFD4
:10139000E9FFDDCFEAFF020EE926000EEA22FB0E8E
:1013A000DBCFEEFFFC0EDBCFEDFFDECFE9FFDDCFC5
:1013B000EAFFEE52FA0EDBCFEFFF400E146EDECFE7
:1013C000E9FFDDCFEAFF1450EF16880E146EDECF72
:1013D000E9FFDDCFEAFF1450EF12FD0EDB500CE009
:1013E000FE0EEA6ADB34FE0BEA36E96E0B0EE926E6
:1013F0000E0EEA22EF740BD0FE0EEA6ADB34FE0B0F
:10140000EA36E96E070EE9260E0EEA22EF74DECF09
:1014100014F0DDCF15F014C0F3FF15C0F4FF00D0B9
:10142000020EE15C02E2E16AE552E16EE552E7CFCD
:10143000D9FF1200D9CFE6FFE1CFD9FF020EE12696
:10144000FE0EDB5020E105CEE9FF06CEEAFFEE52AC
:10145000080EEF6E05CEE9FF06CEEAFF020EE92682
:10146000000EEA22200EEE6E040EED6E05CEE9FFB0
:1014700006CEEAFF8C0EEF6E0BCEE9FF0CCEEAFF34
:10148000840EEF6E3DD0FD0EDB50E824166EFE0E8E
:10149000DB50040DF3501624040DF3CF14F0F4CFF9
:1014A00015F0000E1426040E152214C0DEFF15C020
:1014B000DDFF840E146EDECFE9FFDDCFEAFF1450AE
:1014C000EF12FD0EDB50E824166EFE0EDB50040D0D
:1014D000F3501624010F040DF3CF14F0F4CF15F0E0
:1014E000000E1426040E152214C0DEFF15C0DDFF09
:1014F000840E146EDECFE9FFDDCFEAFF1450EF1249
:10150000020EE15C02E2E16AE552E16EE552E7CFEC
:10151000D9FF1200D9CFE6FFE1CFD9FF65A84ED0A1
:10152000FE0EEA6ADB34FE0BEA36E96E0B0EE926A4
:101530000E0EEA22EE50EFCFEAFFE96E400EEE16F5
:10154000EE6AEE6AEE6AFE0EEA6ADB34FE0BEA36FB
:10155000E96E0B0EE9260E0EEA22EE50EFCFEAFFFF
:10156000E96EEE7CFE0EEA6ADB34FE0BEA36E96ECB
:101570000B0EE9260E0EEA22EF74400E146EFE0EDC
:10158000EA6ADB34FE0BEA36E96E0B0EE9260E0E34
:10159000EA22EE50EFCFEAFFE96E1450EF16FE0E8E
:1015A000EA6ADB34FE0BEA36E96E0B0EE9260E0E14
:1015B000EA22EE50EFCFEAFFE96EEF7CE552E7CF8B
:1015C000D9FF1200656A0F01366B0E01006B00D067
:1015D00012000E01005114E1656A0F01366B160E00
:1015E000396F9F0E376F7B0E366FD08EA288A08822
:1015F000F28E65B602D06586FCD70E01010E006F33
:1016000012000E012A514DE1010E2A6F2B5149E1C2
:10161000010E2B6F020E105D0DE10BCEE9FF0CCE1B
:10162000EAFFEE52EF6A0BCEE9FF0CCEEAFFC80EDE
:10163000EF6E37D0100535E1236B03CEE9FF04CE02
:10164000EAFFEE52080EEF6E03CEE9FF04CEEAFF8A
:10165000020EE926000EEA22200EEE6E040EED6E5A
:1016600003CEE9FF04CEEAFF840EEF6E010E236F76
:1016700005CEE9FF06CEEAFFEE52080EEF6E05CE6C
:10168000E9FF06CEEAFF020EE926000EEA22200E4E
:10169000EE6E040EED6E05CEE9FF06CEEAFF800E7B
:1016A000EF6E12000E012C6B2D6B020E105D1AE115
:1016B00005CEE9FF06CEEAFFEE52080EEF6E05CE2C
:1016C000E9FF06CEEAFF020EE926000EEA22280E06
:1016D000EE6E040EED6E05CEE9FF06CEEAFFC80EF3
:1016E000EF6E1FD014510401265D0E011551040147
:1016F000275904E226C414FE27C415FED1D80BCE08
:10170000E9FF0CCEEAFF020EE926000EEA22280EBF
:10171000EE6E040EED6E0BCEE9FF0CCEEAFFC80EA6
:10172000EF6E1200D9CFE6FFE1CFD9FF020EE1261E
:10173000000EDE6E040EDD6EFD0EDB50E824166E2C
:10174000FE0EDB50040DF3501624040DF3CF14F0FD
:10175000F4CF15F0D9CFE9FFDACFEAFF1450EE2627
:101760001550ED22DECFE9FFDDCFEAFFEF9EFD0E43
:10177000DB500FE1FE0EEA6ADB34FE0BEA36E96E5F
:10178000070EE9260E0EEA22DECFEEFFDDCFEDFFDB
:101790000ED0FE0EEA6ADB34FE0BEA36E96E0B0E63
:1017A000E9260E0EEA22DECFEEFFDDCFEDFFDECF23
:1017B000E9FFDDCFEAFFEF9CDECFE9FFDDCFEAFFF7
:1017C000040EE926000EEA22EF8C020EE15C02E232
:1017D000E16AE552E16EE552E7CFD9FF1200659864
:1017E0000E0113BF2BD018AF09D0020E106F2D5170
:1017F00001E158DF0E012B6B2A6B1FD005CEE9FFEC
:1018000006CEEAFFEE52080EEF6E05CEE9FF06CED9
:10181000EAFF020EE926000EEA22200EEE6E040E0A
:10182000ED6E05CEE9FF06CEEAFF8C0EEF6E0BCE15
:10183000E9FF0CCEEAFF840EEF6E31D0040120AF39
:101840000DD00E01010E106F2C5101E12BDF0E01A6
:101850002B6B2A6B295101E1D4DE21D00E01020E3F
:10186000106F05CEE9FF06CEEAFFEE52080EEF6ECE
:1018700005CEE9FF06CEEAFF020EE926000EEA22B7
:10188000200EEE6E040EED6E05CEE9FF06CEEAFFE9
:10189000840EEF6E2B6B2A6B295101E1B2DE120030
:1018A000D9CFE6FFE1CFD9FFE652080EDF6E0E0179
:1018B000145D000E15590BE214CEDFFF0F5103E14A
:1018C000010E0F6F04D00F0502E1020E0F6FDF5003
:1018D000146E156A1450145D146F15501559156F58
:1018E0000BCEE9FF0CCEEAFFEE52DFCFEFFF280E62
:1018F0001D6F040E1E6F13B119D0DF5016E011CE0C
:10190000F6FF12CEF7FF112B000E12230800F55040
:10191000E66E1DCEE9FF1ECEEAFF1D2B000E1E2334
:10192000E552E750EF6EDF06E8D717D0DF5015E03D
:1019300011CEE9FF12CEEAFF112B000E1223EF5059
:10194000E66E1DCEE9FF1ECEEAFF1D2B000E1E2304
:10195000E552E750EF6EDF06E9D7E552E552E7CFF3
:10196000D9FF1200D9CFE6FFE1CFD9FF020EE12661
:1019700003CEE9FF04CEEAFFEE52EFCFDFFFDFCF69
:1019800014F014500E01195D000E1A5902E219CE1E
:10199000DFFFDF50146E156A1450195D196F155072
:1019A0001A591A6F010EDB6ADF50F36E010EDBCF9E
:1019B000F4FFF350F45C16E2010EDB50EA6A280FE4
:1019C000E96E040EEA22EF50E66E16CEE9FF17CE5E
:1019D000EAFF162B000E1723E552E750EF6E010EBB
:1019E000DB2AE2D7000ED8801955000E1A5528E2DE
:1019F00005CEE9FF06CEEAFFEE52080EEF6E05CEE9
:101A0000E9FF06CEEAFF020EE926000EEA22280EC2
:101A1000EE6E040EED6E03CEE9FF04CEEAFFEF504A
:101A2000400B07E105CEE9FF06CEEAFFC80EEF6ED8
:101A300006D005CEE9FF06CEEAFF880EEF6E28D06D
:101A400005CEE9FF06CEEAFFEE52080EEF6E05CE98
:101A5000E9FF06CEEAFF020EE926000EEA22200E7A
:101A6000EE6E040EED6E05CEE9FF06CEEAFF840EA3
:101A7000EF6E1B511C1107E005D01CCEFAFF0E01C2
:101A80001B51F96EFADF0E01189F295101E1B9DDF2
:101A9000020EE15C02E2E16AE552E16EE552E7CF57
:101AA000D9FF1200D9CFE6FFE1CFD9FFE6520E01F0
:101AB000138F010EE66EE66AE66A270EE66E0F0EDB
:101AC000E66E88EC18F0146E050EE15E1450200EE0
:101AD000E66EE66AE66A000EE66E040EE66E88ECD6
:101AE00018F0146E050EE15E1450658CDF6A020E6C
:101AF000DF5C10E2DF50EA6A240FE96E0E0EEA2284
:101B0000EF6ADF50EA6A260FE96E0E0EEA22EF6AEC
:101B1000DF2AEDD7010EE66EE66AE66A020EE66E91
:101B20000E0EE66E88EC18F0146E050EE15E145091
:101B3000659C0E01080E0B6F040E0C6F000E036FF8
:101B4000040E046F03CE05FE04CE06FE22C401FE81
:101B5000015103E1100E006F13D0010EE66EE66A2C
:101B6000010EE66E0E0EE66E010EE66EE66A4DECB6
:101B700007F0146E060EE15E14500E01200E006F89
:101B8000E552E552E7CFD9FF1200800E0401205D37
:101B90005BE10E01C00E136F04012351030A34E010
:101BA000010A0EE0030A03E00E01136B4DD00E0193
:101BB000380E116F0F0E126F120E146F156B44D08A
:101BC0002251F66EF76AD890F636F736EB0EF62607
:101BD0000F0EF7220900F5CF11FE0A00F5CF12FE15
:101BE000020E0E01F76A1125F66E1251F722080057
:101BF000F5CF14FE030EF76A1125F66E1251F72287
:101C00000800F5CF15FE20D0030E225D1AE2225106
:101C1000F66EF76AD890F636F736ED0EF6260F0E0A
:101C2000F7220900F5CF11FE0A00F5CF12FE11CE02
:101C3000F6FF12CEF7FF0800F5500E01146F156B7A
:101C400002D00E01136B00D01200D9CFE6FFE1CF16
:101C5000D9FF020EE1260401286B296B20511F0BCE
:101C6000020A12E0030A0DE0010A01E042D00E016F
:101C7000138F040128810E011F0502E1040128834E
:101C800038D00E01138F35D00E01138F040124BFFD
:101C900010D024510F0BE96EEA6AD890E936EA3683
:101CA000070EE9260E0EEA22EECFDEFFEDCFDDFFB6
:101CB0000FD024510F0BE96EEA6AD890E936EA3664
:101CC0000B0EE9260E0EEA22EECFDEFFEDCFDDFF92
:101CD000DECFE9FFDDCFEAFFEF50800B09E0DECF7A
:101CE000E9FFDDCFEAFFEF50040B02E0010E286FA1
:101CF00000D00E0113AF07D0280E116F040E126F23
:101D00001381020E146F020EE15C02E2E16AE552F9
:101D1000E16EE552E7CFD9FF12000F0126A115D0E1
:101D200003CEE9FF04CEEAFFEF5080080DE10BCEB1
:101D3000E9FF0CCEEAFFEF50840806E103CEE9FF8D
:101D400004CEEAFF8C0EEF6E2691629A12000F010C
:101D50003685629865820E01010E206F000EE66ED8
:101D6000E66AE66EE66A750EE66EE66A4DEC07F028
:101D7000146E060EE15E145012000E01206B000E70
:101D8000E66EE66AE66EE66A740EE66EE66A4DECAC
:101D900007F0146E060EE15E145065920F01369541
:101DA00062A402D06294FCD71200D9CFE6FFE1CF43
:101DB000D9FFE6520E012D0E286FFD0E211553E1BD
:101DC0007E0E2115E8407F0B040DF3CF03FEF4CF08
:101DD00004FE000E0327040E042303CE05FE04CEEA
:101DE00006FE057503CEE9FF04CEEAFFEF503C0B7B
:101DF000E842E8420D0835E1DF6A080EDF5C23E2C5
:101E000003CEE9FF04CEEAFF020EE926000EEA2225
:101E1000EE50EFCFEAFFE96EEF50E66EDF50EA6A70
:101E2000200FE96E040EEA22E552E750EF6E03CE72
:101E3000E9FF04CEEAFF020EE926000EEA22EE2AAE
:101E4000EF22DF2ADAD703CEE9FF04CEEAFF020E43
:101E5000E926000EEA22200EEE6E040EED6E0DD87D
:101E600001D03AD805D0FD0E2115040801E159D85A
:101E7000E552E552E7CFD9FF12000E010F6B296B37
:101E80002C6B2D6B236B106B0BCEE9FF0CCEEAFF96
:101E9000EF9E0B750BCEE9FF0CCEEAFFEF9E0B75A4
:101EA00005CEE9FF06CEEAFFEF9E136B146B156BB0
:101EB000186B196B1A6B92D8000EE66EE66AE66E26
:101EC000E66A030EE66EE66A4DEC07F0146E060E47
:101ED000E15E1450EFEF0BF0020E0E01105D02E117
:101EE00041DD1ED0106B23511AE105CEE9FF06CE6D
:101EF000EAFFEE52080EEF6E05CEE9FF06CEEAFFCE
:101F0000020EE926000EEA22200EEE6E040EED6EA1
:101F100005CEE9FF06CEEAFF8C0EEF6E01D0236BF3
:101F20001200D9CFE6FFE1CFD9FFE6520BCEE9FF91
:101F30000CCEEAFFEF50400B01E0010EDF6E0E0108
:101F40000B75080E005D0CE122C438FF0F013851FB
:101F500004E00E01100E006F03D00E01040E006F9E
:101F6000100528E10BCEE9FF0CCEEAFF020EE926B0
:101F7000000EEA22280EEE6E040EED6E91DC020ECB
:101F80000E010F5D07E10BCEE9FF0CCEEAFF840ED8
:101F9000EF6E0FD0DF5007E10BCEE9FF0CCEEAFF6A
:101FA000C80EEF6E06D00BCEE9FF0CCEEAFF880E0E
:101FB000EF6E0FD018AF0CD01B511C1107E005D0ED
:101FC0001CCEFAFF0E011B51F96EFADF0E01189FAD
:101FD000106BE552E552E7CFD9FF12000401205102
:101FE000600BE842E842E842E842E842000901E0CA
:101FF00058D021510C0A54E00B0A43E00C0A35E09A
:10200000010A26E00B0A22E0020A20E0030A1CE093
:10201000080A10E0010A0CE00F0A08E0030A01E0D8
:102020003FD00E01138F080E006F3BD0AEDD39D0CC
:1020300039DD37D00E01010E116F0E0E126F1381B4
:10204000010E146F138F2DD000DE2BD02BD829D08A
:1020500024510E01116F126B020E11270E0E122366
:102060001381010E146F138F1CD00E01138F040106
:102070002451EA6A020FE96E0E0EEA2222C4EFFF33
:1020800010D0000EE66EE66AE66EE66A020EE66EB6
:10209000E66A4DEC07F0146E060EE15E145001D0B6
:1020A00000D01200D9CFE6FFE1CFD9FF050EE1261F
:1020B0000401220510E120511F0B00090CE10E0163
:1020C000138F030E0401215D04E10E01010E1F6F49
:1020D00002D00E011F6B0401225101E020D12051DA
:1020E0001F0B020801E01BD124510F0B000901E175
:1020F00016D124510F0B010801E211D1200E0E015F
:10210000005D01E00CD1138F040124BF1AD02451CB
:102110000F0BE96EEA6AD890E936EA36070EE9262F
:102120000E0EEA22EECFDEFFEDCFDDFF24510F0BC6
:10213000EA6A260FE96E0E0EEA22020EEFCFDBFFEF
:1021400019D024510F0BE96EEA6AD890E936EA36C5
:102150000B0EE9260E0EEA22EECFDEFFEDCFDDFFFD
:1021600024510F0BEA6A240FE96E0E0EEA22020ECA
:10217000EFCFDBFFD950020FE96EDACFEAFFEF5065
:10218000010B03E1000EDF9401D0DF8424BF10D0E7
:1021900024510F0BE96EEA6AD890E936EA36070E49
:1021A000E9260E0EEA22DECFEEFFDDCFEDFF0FD0E7
:1021B00024510F0BE96EEA6AD890E936EA360B0E25
:1021C000E9260E0EEA22DECFEEFFDDCFEDFF030E95
:1021D000215D23E1DECFE9FFDDCFEAFFEF50800B89
:1021E00013E024BF09D024510F0BEA6A260FE96ED1
:1021F0000E0EEA22EF8208D024510F0BEA6A240F58
:10220000E96E0E0EEA22EF82840E146EDECFE9FF35
:10221000DDCFEAFF1450EF1282D0DF74DECFE9FF8A
:10222000DDCFEAFFEF50800B1BE0DECFE9FFDDCF13
:10223000EAFFEF9EDECFE9FFDDCFEAFFEF8C020E73
:10224000E66EE66ADECFE6FFDDCFE6FF050EE66E60
:10225000E66A4DEC07F0146E060EE15E145005D0F0
:10226000DECFE9FFDDCFEAFFEF8CDF74D950020F3C
:10227000E96EDACFEAFFEF50020B07E1DECFE9FFAC
:10228000DDCFEAFFEF50800B2DE0040124BF09D021
:1022900024510F0BEA6A260FE96E0E0EEA22EF9226
:1022A00008D024510F0BEA6A240FE96E0E0EEA22C1
:1022B000EF923B0E146EDECFE9FFDDCFEAFF145044
:1022C000EF16020EE66EE66ADECFE6FFDDCFE6FF32
:1022D000050EE66EE66A4DEC07F0146E060EE15E42
:1022E000145008D03B0E146EDECFE9FFDDCFEAFFBD
:1022F0001450EF16040124510F0B156A260F146EAB
:102300000F0E1522030E14C0DBFF040E15C0DBFFF9
:10231000030EDBCFE9FF040EDBCFEAFFEF90050EE3
:10232000E15C02E2E16AE552E16EE552E7CFD9FFF6
:02233000120099
:0E233200D9CFE6FFE1CFD9FFD950FD0FE96EFC
:10234000FF0EDA20EA6EEE50ED1006E1949E829EBA
:10235000949C829C936A10D0D950FD0FE96EFF0EB9
:10236000DA20EA6E010EEE1801E1ED5005E1936806
:10237000949E828E949C828CE552E7CFD9FF120006
:10238000010EE66EE66AD5DFE552E552815000D0D7
:102390001200D9CFE6FFE1CFD9FF000EE66EE66A64
:1023A000C8DFE552E552FE0EDB508A6EE552E7CFFC
:1023B000D9FF1200D9CFE6FFE1CFD9FFFE0EDBCF68
:1023C000F2F0E552E7CFD9FF12000001F25100D040
:1023D0001200F2C0E6FFDDDFE5521200D9CFE6FFC2
:1023E000E1CFD9FFFE0EDBCFF1F0E552E7CFD9FF09
:1023F00012000001F15100D01200D9CFE6FFE1CF69
:10240000D9FF050EE126FE0EDB50010B080DF3503F
:10241000DF6EFE0EDB50020B020D010EF3CFDBFF71
:10242000FE0EDB50040BE8407F0BE76E020EE7CF99
:10243000DBFFFE0EDB50080BE840E840E8401F0BD6
:10244000E76E030EE7CFDBFFFE0EDB50F00BE76E0F
:10245000040EE7CFDBFF030EDBCFE6FF020EDBCF80
:10246000E6FF010EDBCFE6FF040EDB50DF10E55286
:10247000E710E552E710E552E710E76E040EE7CFEC
:10248000DBFFDB50146E050EE15C03E200D0E16A75
:10249000E552E16E1450E552E7CFD9FF1200D9CFD3
:1024A000E6FFE1CFD9FFE652FE0EDB500F0BDF6EE9
:1024B00094948294DFCFE6FFA0DFE552E66E69DFF9
:1024C000E5528284FA0EE66EE66AE66AE66A83EC14
:1024D00016F0E552E552E552E5528294640EE66E3E
:1024E000E66AE66AE66A83EC16F0E552E552E552E2
:1024F000E552E552E552E7CFD9FF1200D9CFE6FF0A
:10250000E1CFD9FF020EE126FE0EDB500F0BDF6E8E
:10251000FE0EDB50F00BE8380F0B0F0BE76E010ED1
:10252000E7CFDBFF800EDF10DF6E010EDB5080098E
:10253000E76E010EE7CFDBFF94948294DBCFE6FFDA
:102540005CDFE552E66E25DFE55282844B0EE66ED7
:10255000E66AE66AE66A83EC16F0E552E552E55271
:10256000E5528294010EE66EE66AE66AE66A83EC5C
:1025700016F0E552E552E552E552DFCFE6FF3DDFCA
:10258000E552E66E06DFE55282844B0EE66EE66AA1
:10259000E66AE66A83EC16F0E552E552E552E5524A
:1025A0008294010EE66EE66AE66AE66A83EC16F04D
:1025B000E552E552E552E552020EE15C02E2E16AC3
:1025C000E552E16EE552E7CFD9FF1200D9CFE6FF21
:1025D000E1CFD9FF020EE126DE6ADD6AFD0EDBCF18
:1025E00014F0FE0EDBCF15F0DE501424E96EDD5042
:1025F0001520EA6EEF5015E0FD0EDBCF14F0FE0E55
:10260000DBCF15F0DE501424E96EDD501520EA6EA4
:10261000EF50E66E73DFE552DF2A010E01E3DB2A9D
:10262000DDD7020EE15C02E2E16AE552E16EE552BD
:10263000E7CFD9FF1200E66A32DFE552010EE66EFF
:102640002EDFE552E66A2BDFE552E66A28DFE55227
:10265000010EE66E24DFE552030EE66E20DFE55242
:10266000030EE66E1CDFE552030EE66E18DFE55240
:10267000020EE66E14DFE552020EE66E10DFE55242
:10268000080EE66E0CDFE552E66A09DFE5520C0E35
:10269000E66E05DFE552E66A02DFE552060EE66EFB
:1026A000FEDEE552E66AFBDEE552010EE66EF7DE7F
:1026B000E5521200D9CFE6FFE1CFD9FFFE0EDBCF06
:1026C000F3F0E552E7CFD9FF12000001F35100D03B
:1026D0001200D9CFE6FFE1CFD9FF020EE126040EAA
:1026E000C16EFE0EDB5002E1010EC26EFE0EDB0477
:1026F00002E1050EC26EFE0EDB50020802E1090E79
:10270000C26EFE0EDB50030802E10D0EC26EFE0E1D
:10271000DB50040802E1110EC26EC282C2B2FED7C3
:10272000060EC4CFE7FF070B04E0E742E79EE8068A
:10273000FCE1E750030BE66EFC0EDBCFE9FFFD0E7C
:10274000DBCFEAFFE552E750EF6E060EC3CFE7FF9F
:10275000070B04E0E742E79EE806FCE1E750030BC5
:10276000146EC450040DF350FC0B1410E66EFA0EF8
:10277000DBCFE9FFFB0EDBCFEAFFE552E750EF6E60
:10278000020EE15C02E2E16AE552E16EE552E7CF5A
:10279000D9FF1200D9CFE6FFE1CFD9FF700EE126B5
:1027A000DF6ADE52010EDD6E020EDB6AD950030FC6
:1027B000E96EDACFEAFF200EEE6E450EEE6E440EA5
:1027C000EE6E550EEE6E300EEE6E350EEE6E200E87
:1027D000EE6E660EEE6E690EEE6E720EEE6E6D0EA3
:1027E000EE6E770EEE6E610EEE6E720EEE6E650E92
:1027F000EE6E200EEE6EEE6EEE6EEE6EEE6EEE6E27
:10280000EE6EEE6EEE6EEE6EEE6EEE6EEE6EEE6EE8
:10281000EE6EEE6EEE6EEE6EEE6EEE6EEE6EEE6ED8
:10282000EE6EEE6EEE6EEE6EEE6E6F0EEE6E700E85
:10283000EE6E650EEE6E6E0EEE6E200EEE6E730E8A
:10284000EE6E6F0EEE6E750EEE6E720EEE6E630E27
:10285000EE6E650EEE6E730EEE6EEE6AD9503A0FA6
:10286000E96EDACFEAFF200EEE6E450EEE6E440EF4
:10287000EE6E550EEE6E300EEE6E350EEE6E200ED6
:10288000EE6E660EEE6E690EEE6E720EEE6E6D0EF2
:10289000EE6E770EEE6E610EEE6E650EEE6E200E33
:1028A000EE6EEE6EEE6EEE6EEE6EEE6EEE6EEE6E48
:1028B000EE6EEE6EEE6EEE6EEE6EEE6EEE6EEE6E38
:1028C000EE6EEE6EEE6EEE6EEE6EEE6EEE6EEE6E28
:1028D000EE6EEE6EEE6E6F0EEE6E700EEE6E650EBE
:1028E000EE6E6E0EEE6E200EEE6E730EEE6E6F0ED0
:1028F000EE6E750EEE6E720EEE6E630EEE6E650E81
:10290000EE6E730EEE6EEE6A380E946E0F01F00EE0
:10291000486F49690E010E0ED16F040ECA6E0C0E7F
:10292000BA6EC70ECB6E030EBB6E120ED26F040EC4
:10293000CA6E0C0EB46EC70ECB6EB56EDF6ADFCFFB
:1029400014F0080EE76E1418E8AE02D0E73402D097
:10295000E750145C19E2010EDBCFE6FF1ADDE55209
:10296000010EDB50020D010EF3CFDBFF100EE66E01
:10297000270EE66EE66AE66A83EC16F0E552E5524B
:10298000E552E552DF2ADBD756DED950030FE66E5B
:10299000000EDA20E66E1ADEE552E552DE52800EB7
:1029A000DD6EDF6ADFCF14F0080EE76E1418E8AEB4
:1029B00002D0E73402D0E750145C1AE2010EDBCFFC
:1029C000E6FFE7DCE552010EDB407F0BE76E010E10
:1029D000E7CFDBFF100EE66E270EE66EE66AE66ACC
:1029E00083EC16F0E552E552E552E552DF2ADAD7DC
:1029F000E66ACFDCE552700EE15C02E2E16AE55284
:0A2A0000E16EE552E7CFD9FF1200A6
:062A0A000F9E05D00F9E97
:102A100007AE02D0076C0F8E07C001F0006A136A80
:102A2000126A860E026E036A19EF16F00F6A55ECF1
:102A300016F06DEC16F00FB6FDEF15F00FA205D0F5
:102A40000FBAFDEF15F004EF16F00FBA10EF16F005
:102A50000FA005D00FB8FDEF15F010EF16F00FB86E
:102A600004EF16F0036A7F0E0824026EE86A032260
:102A70000D50025EE86A035A1A0E106E086A126A56
:102A8000136A006A016A0A50055E0B50065A0C5020
:102A9000075A000E085A09E70A5005260B5006226D
:102AA0000C500722000E082201D0128AD890053659
:102AB000063607360836D8901236133600360136F9
:102AC000102EE1D7075006100510D8A4128A19EF6E
:102AD00016F00F6A55EC16F06DEC16F00FB6FDEF20
:102AE00015F00FA205D00FB8FDEF15F004EF16F0AA
:102AF0000FAA05D00FB0FDEF15F004EF16F00FB0E0
:102B000002D00FA802D010EF16F0036A0D5008246F
:102B1000026EE86A03227E0E025EE86A035A126AB7
:102B2000136A006A016A0C500702F4CF01F0F3CF78
:102B300000F00B500702F3501326F4500022000E51
:102B400001220C500602F3501326F4500022000E0E
:102B500001220A500702F3501226F4501322000EED
:102B6000002201220B500602F3501226F4501322C9
:102B7000000E002201220C500502F3501226F450E0
:102B80001322000E002201220A500602F4501226DF
:102B9000000E1322002201220B500502F4501226CF
:102BA000000E13220022012219EF16F00F6A55ECD5
:102BB00016F00FB6E0EF15F00FA20AD00FB403D055
:102BC0007F0E076E19D0800E076E16D0076A14D0DC
:102BD0000FB0FCD7870E0860F1D77E0E0864F6D7D9
:102BE000860E085C04E0D8900732082AF9D70FA4B3
:102BF00003D0076C07AEEAD712007F0E086EFF0EF7
:102C0000076E066E056E12007F0E0FBEFF0E086E79
:102C100002D07F0E086E800E076E066A056AF3D733
:102C20000FAE04D0800E086E076AF7D7086A076AED
:102C3000F4D70150001013101210F8E003BEF0D7C3
:102C400001BE0CD002500310EBE0D89012361336C0
:102C5000003601360206D8A00306F2D70350D4E1AD
:102C60000228D2E012AE11D07F0E121402E113A09E
:102C70000CD0132AE86A0022012207E3D88001322F
:102C800000321332022A0228BFE00250C9E013C00A
:102C900005F000C006F00134076E0230086E0732FE
:102CA000089E0FBE088E03EF16F00736083602E3C3
:102CB0000F840F7E06E10F80086A076A066A056ABC
:102CC0001200082803E0D88007321200D89007329B
:102CD00002E10F8212000F8612000C360D3602E35D
:102CE0000F8C0F7E06E10F880D6A0C6A0B6A0A6A68
:102CF00012000D2803E0D8800C321200D8900C325C
:062D0000EAE10F8A120057
:0A2D0600D9CFE6FFE1CFD9FF040E9C
:102D1000E12601D079D0FB0EDBCF14F0FC0EDBCF27
:102D200015F0FD0EDBCF16F0FE0EDBCF17F0780EA0
:102D3000096E0A6A0B6A0C6A14C004F015C005F02B
:102D400016C006F017C007F050EC18F000C014F0E1
:102D500001C015F002C016F003C017F014C0DFFF69
:102D6000010E15C0DBFF020E16C0DBFF030E17C0FD
:102D7000DBFFD9CFE9FFDACFEAFFAF0EEE5E000E40
:102D8000EE5A000EEE5A000EEE5ADECF05F0DECF00
:102D900006F0DECF07F0DDCF08F0DD52DD5208345B
:102DA000000E081809E6D8802D0E0554000E0654B2
:102DB000000E0754000E085401E326D0DECF05F0C4
:102DC000DECF06F0DECF07F0DDCF08F0DD52DD52BA
:102DD0000834000E081809E6D880000E0554000ECD
:102DE0000654000E0754000E08540EE20000D9CF1E
:102DF000E9FFDACFEAFF2A0EEE5E000EEE5A000E71
:102E0000EE5A000EEE5ADAD7040EE15C02E2E16AF5
:102E1000E552E16EE552E7CFD9FF1200D9CFE6FFC8
:102E2000E1CFD9FF040EE126FD0EDBCF14F0FE0E3C
:102E3000DBCF15F0166A176AE00E096E2E0E0A6EC9
:102E40000B6A0C6A14C004F015C005F016C006F039
:102E500017C007F050EC18F000C014F001C015F0D6
:102E600002C016F003C017F014C0DFFF010E15C03A
:102E7000DBFF020E16C0DBFF030E17C0DBFFD9CF4E
:102E8000E9FFDACFEAFFAA0EEE5E000EEE5A000E60
:102E9000EE5A000EEE5ADECF05F0DECF06F0DECFA2
:102EA00007F0DDCF08F0DD52DD520834000E0818BF
:102EB00009E6D880C30E0554000E0654000E0754D0
:102EC000000E085402E327D026D0DECF05F0DECF77
:102ED00006F0DECF07F0DDCF08F0DD52DD5208341A
:102EE000000E081809E6D880000E0554000E06549E
:102EF000000E0754000E08540EE20000D9CFE9FF7F
:102F0000DACFEAFF270EEE5E000EEE5A000EEE5A02
:102F1000000EEE5ADAD7040EE15C02E2E16AE552F5
:0A2F2000E16EE552E7CFD9FF120081
:062F2A00040120511F0B01
:102F3000010801E065D0245101E062D0060E215D58
:102F400022E12351230A1EE0010A11E0030A01E0F5
:102F50001AD00E0101050AE10E015C0E116F0F0E71
:102F6000126F090E146F156BC00E136F0CD00E018B
:102F7000CF0E116F0F0E126F1C0E146F156BC00E5B
:102F8000136F01D000D004012051600BE842E842E9
:102F9000E842E842E842010801E032D021510B0A40
:102FA00029E0080A1CE0090A14E0080A07E00B0AF5
:102FB00004E0080A01E024D023D022D00E01F40E50
:102FC000116F000E126F010E146F156BC10E136F8F
:102FD00017D00E01800E136F23C4F4F011D00E0130
:102FE000F50E116F000E126F010E146F156B810E2E
:102FF000136F06D00E01800E136F22C4F5F000D0BF
:023000001200BC
:0E3002002A0EF66E080EF76E000EF86E000134
:103010000900F550E76F0900F550E86F03E1E76735
:1030200001D03DD00900F550E26F0900F550E36F83
:103030000900F550E46F09000900F550E96E090038
:10304000F550EA6E090009000900F550E56F090026
:10305000F550E66F09000900F6CFE9F0F7CFEAF086
:10306000F8CFEBF0E2C0F6FFE3C0F7FFE4C0F8FFF3
:103070000001E55302E1E65307E00900F550EE6E6A
:10308000E507F8E2E607F9D7E9C0F6FFEAC0F7FF7F
:10309000EBC0F8FF0001E707000EE85BBFD71200A6
:1030A00004500902F3CF00F0F4CF01F00A02F3500C
:1030B0000126000EF420026E04500B02F35002268B
:1030C000000EF420036E04500C02F350032605504A
:1030D0000902F3500126F4500222000E032205508B
:1030E0000A02F3500226F450032205500B02F3505B
:1030F000032606500902F3500226F450032206501C
:103100000A02F350032607500902F3500326120067
:10311000FE0EE3CFE9FFFF0EE3CFEAFFE9CFF3FFB7
:10312000EACFF4FFFB0EE35003E1FC0EE35009E0AD
:10313000FB0EE30602E2FC0EE306FD0EE350EE6E2C
:04314000F1D71200B1
:0C314400C00EF36E00EE00F00E0E01D87D
:103150001200EA6002D0EE6AFCD7F350E960120078
:04316000EE6AFCD740
:0C3164001DEE00F02DEE00F0F86A0F9C4C
:1031700001EC18F003EC08F080EC04F0FBD712002F
:013FF800AE1A
:013FF900F7D0
:013FFA001DA9
:013FFB00FFC6
:013FFC006361
:013FFD00F8CB
:013FFE008141
:013FFF00F1D0
:00000001FF
